:020000040800F2
:10000000100800204D120008AD110008B5110008BD
:10001000B7110008B9110008BB110008000000006A
:10002000000000000000000000000000BD110008FA
:10003000BF11000800000000C1110008C311000832
:1000400075120008791200087D120008811200085C
:1000500085120008891200088D120008911200080C
:1000600095120008991200089D120008A1120008BC
:10007000A5120008A9120008AD120008B11200086C
:10008000B5120008B9120008BD120008C11200081C
:10009000C5120008C9120008CD120008D1120008CC
:1000A000D5120008D9120008DD120008E11200087C
:1000B000E5120008E9120008ED120008F11200082C
:1000C000F5120008F9120008FD12000801130008DB
:1000D00005130008091300080D1300081113000888
:1000E00015130008191300081D1300082113000838
:1000F00025130008291300082D13000831130008E8
:1001000035130008391300083D1300084113000897
:1001100045130008491300084D1300085113000847
:1001200055130008591300085D13000861130008F7
:100130002DE9FC410400002C01D10120DFE12078F1
:10014000C0076BD5DFF8A805016811F00C01042980
:1001500007D0016811F00C0108290CD10068C00318
:1001600009D5DFF888050068800357D56068002846
:1001700054D10120C3E16068B0F5803F06D1DFF8BB
:100180006C05016851F48031016026E06068002848
:100190000AD1DFF85805016831F480310160016847
:1001A00031F48021016018E06068B0F5A02F0AD119
:1001B000DFF83805016851F480210160016851F4CD
:1001C0008031016009E0DFF82405016831F48031F5
:1001D0000160016831F480210160606800280ED060
:1001E00000F0CAFA0500DFF804050068800315D4A2
:1001F00000F0C2FA401B6528F5D303207FE100F030
:10020000BBFA0500DFF8E4040068800306D500F0BF
:10021000B3FA401B6528F5D3032070E120788007EE
:100220001ED5DFF8CC04016811F00C0F07D001686F
:1002300011F00C0108292CD10068C00329D4DFF883
:10024000AC040168890704D52169012901D0012086
:1002500055E1016831F0F801626951EAC2010160BB
:100260002078000749D5A069002871D00120DFF867
:100270009814086000F080FA0500DFF88404006834
:10028000800737D400F078FA401B0328F5D3032009
:1002900035E1206900281AD00120DFF870140860C9
:1002A00000F06AFA0500DFF844040168890706D403
:1002B00000F062FA401B0328F5D303201FE1016818
:1002C00031F0F801626951EAC2010160C8E700201B
:1002D000DFF83814086000F04FFA0500DFF80C046E
:1002E00000688007BCD500F047FA401B0328F5D30F
:1002F000032004E1012000F0E7F92078400740F1F5
:1003000096800026DFF808542868C00009D42868C1
:1003100050F080502860286810F0805000900098BD
:100320000126DFF8F0733868C00524D4386850F42B
:100330008070386000F020FA80463868C0051AD412
:1003400000F01AFAB0EB08006528F6D30320D6E0D7
:100350000020DFF8B413086000F00EFA0500DFF8A3
:10036000A00300688007C8D500F006FA401B0328E8
:10037000F5D30320C3E0E068012806D1DFF8980335
:10038000016851F00101016025E0E06800280AD110
:10039000DFF884030168490849000160016831F011
:1003A0000401016017E0E06805280AD1DFF868035E
:1003B000016851F004010160016851F00101016020
:1003C00009E0DFF854030168490849000160016849
:1003D00031F004010160E068002810D000F0CCF991
:1003E0000700DFF834030068800719D400F0C4F96F
:1003F000C01B41F289318842F3D303207FE000F033
:10040000BBF90700DFF810030068800708D500F08B
:10041000B3F9C01B41F289318842F3D303206EE067
:10042000F6B2012E03D1286830F080502860E069D0
:10043000002863D0DFF8B862306810F00C0008289C
:100440004AD0E069022834D1DFF8D0720020386049
:1004500000F092F98046DFF894522868800107D5B1
:1004600000F08AF9B0EB08000328F4D3032046E03B
:10047000206AB0F5803F05D1316831F40031A068C1
:1004800001433160316831F47411206A0143606ABC
:10049000014331600120386000F06EF904002868E3
:1004A00080012BD400F068F9001B0328F7D3032048
:1004B00025E00020DFF86412086000F05DF9040018
:1004C000DFF828020068800118D500F055F9001BFC
:1004D0000328F5D3032012E0E069012801D10120AF
:1004E0000DE0306810F48031226A914204D110F49A
:1004F0007010616A884201D0012000E00020BDE850
:10050000F6812DE9F04104000E00002C01D10120FC
:1005100098E0DFF80C52286810F00700B0420BD2C8
:100520002868C008C00030432860286810F0070021
:10053000B04201D0012085E02078800716D52078D0
:10054000400704D56A48016851F4E06101602078F1
:10055000000704D56648016851F4605101606449A0
:100560000A6832F0F002A06802430A602078C007EF
:1005700032D56068012805D15C480068800310D43A
:1005800001205FE06068022805D1584800688001BA
:1005900007D4012056E055480068800701D40120A7
:1005A00050E0534F39688908890060680143396019
:1005B00000F0E2F88046386810F00C006168B0EB9B
:1005C000810F09D000F0D8F8B0EB080041F2893172
:1005D0008842F0D3032035E0286810F007008642F7
:1005E0000BD22868C008C00030432860286810F08B
:1005F0000700B04201D0012024E02078400706D552
:100600003B490A6832F4E062E06802430A602078FD
:10061000000707D53648016831F46051226951EA74
:10062000C201016000F014F83E49314A1268C2F379
:100630000312895CC840304908603048006800F007
:10064000A1F80020BDE8F08101203749086070471B
:1006500000B585B001A83549102200F0B9F834483A
:100660000088ADF8000000200020002000200020BD
:100670001F4A116811F00C00042802D0082802D08B
:1006800014E01C4813E001A8C1F38343C05CC90314
:1006900009D569461268C2F340428A5C154948434D
:1006A000B0FBF2F001E02349484300E0114805B0F7
:1006B00000BD80B513480068000604D500F03EF880
:1006C00080201D49087001BD81B00B490968C90827
:1006D0004FF47A72B1FBF2F14843009000BF0098EA
:1006E000411E00910028F9D101B07047001002406E
:1006F0000410024000127A000400002000000020D4
:10070000241002400810024080044242000042428D
:100710001C10024000700040201002406000424265
:10072000002002403C1200084C0042422C120008FB
:100730005608000800093D000A100240704730B416
:10074000002513E050F8042BD30744BFA9F101039F
:100750009A18091F042942F8045BFAD213468C0741
:1007600044BF15809B1CC90748BF1D7050F8041B6F
:100770000029E7D130BC704701480068704700BFCE
:100780000C04002010B504004FF47A700D4909786C
:10079000B0FBF1F00C490968B1FBF0F000F0CAF8C9
:1007A000002801D001200CE0102C09D200222100E9
:1007B0005FF0FF3000F0ADF804480460002000E076
:1007C000012010BD080000200400002000000020CF
:1007D000103A07D330B4B1E83810103AA0E8381016
:1007E000F9D230BC530724BFB1E80810A0E80810C4
:1007F00044BF51F8043B40F8043BD20724BF31F812
:10080000022B20F8022B44BF0B7803707047121F95
:1008100017D35B0009D151F8043B20F8023B1B0CB5
:10082000121F20F8023BF6D20BE051F8043B00F80F
:10083000013B1B0A20F8023B1B0C121F00F8013B76
:10084000F3D238BF121D521E24BF11F8013B00F82D
:10085000013BF8D87047010210F00700374B1A68C7
:100860004FF6FF010A40364951EA00210A431A6057
:10087000704732480068C0F302207047020052B24D
:10088000002A04D409012F4A40B2115407E009019B
:100890002D4A40B210F00F00104400F8041C7047BD
:1008A00010B410F00700D0F10703052B01D3042387
:1008B00001E0D0F10703041D072C01D2002000E065
:1008C000C01E012414FA03F35B1E1940814014FA80
:1008D00000F0401E1040084310BC704780B5411E18
:1008E000B1F1807F01D301200EE0401E174908605E
:1008F0000F215FF0FF30FFF7C1FF002014490860AF
:10090000072014490860002002BD80B5FFF7A4FF4E
:1009100001BD70B504000D0016000020FFF7A9FF0F
:1009200032002900FFF7BCFF0100200040B2FFF7B2
:10093000A5FF70BD80B5FFF7D1FF02BD0CED00E053
:100940000000FA0500E400E018ED00E014E000E02B
:1009500018E000E010E000E080B500F05FF900F082
:1009600059F8302000F00CF80C2000F009F80120B4
:1009700000F006F801BD0100481E0029FBD17047B8
:1009800038B50400DFF8885201220421280000F065
:10099000C0FAF82000F053F80120FFF7ECFF14F044
:1009A000F00000F04CF80120FFF7E5FF24012000E3
:1009B000C0B200F044F801220421280000F0A9FA96
:1009C00031BD38B50400DFF8485201220421280067
:1009D00000F09FFAFA2000F032F80120FFF7CBFF79
:1009E00014F0F00000F02BF80120FFF7C4FF240101
:1009F0002000C0B200F023F801220421280000F0FA
:100A000088FA31BD80B50120FFF7BAFF0A2000F057
:100A1000AFFA01BD10B57F4C00224FF400712000E9
:100A200000F077FA052000F0A3FA01224FF40071DC
:100A3000200000F06EFA052000F09AFA10BD70B5A3
:100A40000400002521E000222021724800F061FA14
:100A500009E02000C0B2A8400006F4D50122202100
:100A60006C4800F056FA6B4E01220821300000F06D
:100A700050FA0120FFF77FFF00220821300000F02C
:100A800048FA0120FFF777FF6D1C2800C0B2082844
:100A9000DFDB70BD2DE9F04104000D0016000020E1
:100AA00000203420FFF76CFF2700FFB23F0914F04D
:100AB0000F042800C0B2202801DB203D0837B5F123
:100AC0008000C0B2FFF75CFFB7F18000C0B2FFF753
:100AD00057FF51492800C0B2400108443A00D2B241
:100AE00000EB420040782A00D2B252010A443B0097
:100AF000DBB202EB430292F802802200D2B2082A53
:100B00003CDAF6B2002E03D0022E20D010D32DE016
:100B10000122D4F1070412FA04F430EA040420009C
:100B2000EDB26A011144FFB201EB470148701DE0CC
:100B30000122D4F1070412FA04F404432000EDB2B8
:100B40006A011144FFB201EB470148700EE0012237
:100B5000D4F1070412FA04F444402000EDB26A0113
:100B60001144FFB201EB47014870FFE7C0B2FFF745
:100B700028FF4046C0B2FFF724FF40E0F6B2002E47
:100B800003D0022E23D011D332E00122D4F10F047E
:100B900012FA04F438EA0404A046EDB26A011144E2
:100BA000FFB201EB470181F8028021E00122D4F17C
:100BB0000F0412FA04F454EA0804A046EDB26A01E4
:100BC0001144FFB201EB470181F8028010E00122DD
:100BD000D4F10F0412FA04F494EA0804A046EDB22A
:100BE0006A011144FFB201EB470181F80280FFE77F
:100BF000C0B2FFF7E6FE4046C0B2FFF7E2FE362085
:100C0000FFF7BEFE3020FFF7BBFEBDE8F08100001D
:100C100000140140000C01400C00002030B585B0EC
:100C20006846102100F0B8F94348016851F02001EE
:100C30000160016811F0200104910499016851F0EC
:100C400004010160016811F0040104910499016834
:100C500051F008010160006810F008000490049849
:100C6000364C00220421200000F053F9344D0022BC
:100C70000821280000F04DF900222021280000F072
:100C800048F900224FF48071280000F042F9002258
:100C90004FF40071280000F03CF90420009001207E
:100CA000019000200290022003906946200000F08D
:100CB00049F80820009001200190002002900220B5
:100CC00003906946280000F03DF8202000900120A4
:100CD000019000200290022003906946280000F055
:100CE00031F84FF4807000900120019000200290B4
:100CF000022003906946280000F024F84FF40070A9
:100D0000009001200190002002900220039069468B
:100D1000280000F017F800220421200000F0F9F864
:100D200000222021280000F0F4F8002208212800E9
:100D300000F0EFF805B030BD18100240001401407B
:100D4000000C0140F8B502000023002514E0DFF894
:100D5000D801066836EA040404600CE0DFF8CC0130
:100D60000668A643066048688002F0D5DFF8B8013F
:100D70000668344304605B1C0868D840002800F013
:100D8000C78001269E400C683440B442F3D14868C5
:100D900000282CD001281FD0022822D0032834D0CC
:100DA00011281BD012281FD0DFF88471B8421ED042
:100DB000DFF88071B8421AD0DFF87C71B84216D0E3
:100DC000DFF87871B84212D0DFF87471B8420ED0F3
:100DD0005C4FB8420BD01AE0CD6818E0CD682D1DED
:100DE00015E0CD68083512E0CD680C350FE0886855
:100DF000002801D1042507E08868012802D10825D0
:100E0000166101E00825566101E00025FFE7B4F511
:100E1000807F01D2170000E0171DB4F5807F02D259
:100E20005FEA830C03E0B3F1080C5FEA8C0C0F2639
:100E3000D7F800E016FA0CF03EEA000E15FA0CFCAA
:100E40005CEA0E0CC7F800C04868C00093D53E4865
:100E5000076857F001070760006810F00100009074
:100E600000983A4F1800800857F820C013F003008C
:100E7000C0B2800086403CEA060C3548824201D16F
:100E8000002619E03348824201D1012614E032489D
:100E9000824201D102260FE03048824201D103266E
:100EA0000AE02F48824201D1042605E02D48824203
:100EB00001D1052600E0062613F00300C0B2800031
:100EC000864056EA0C0C1800800847F820C0486895
:100ED000C00304D5244806682643066003E0224880
:100EE0000668A64306604868800304D51F48066864
:100EF0002643066003E01D480668A643066048686E
:100F0000C0027FF52BAF09480668264306602AE732
:100F1000F1BDD2B2002A02D089B2016102E089B2E9
:100F200009040161704700000C04014008040140FD
:100F3000000011100000121000002110000022100B
:100F4000000031100000321018100240080001406B
:100F500000080140000C0140001001400014014055
:100F600000180140001C014000040140040401403D
:100F700038B50400FFF700FC050014F1010F02D0A2
:100F8000044800780419FFF7F7FB401BA042FAD38E
:100F900031BD00BF08000020002200F001B80000B1
:100FA00000B500BF130096469446103928BFA0E84C
:100FB0000C50FAD85FEA417C28BF0CC048BF40F80B
:100FC000042BC90728BF20F8022B48BF00F8012BCB
:100FD00000BD80B500F04CF800F012F8FFF7BCFC43
:100FE000FFF710FD4FF47A70FFF7C2FF01220321D3
:100FF0000120FFF74FFD42F21070FFF7B9FFEFE756
:1010000000B58FB005A82821FFF7C6FF6846142158
:10101000FFF7C2FF012005905FF4803006900021A9
:1010200007910121099102210C910D905FF4E010CC
:101030000E9005A8FFF77CF8002801D000F017F803
:101040000F20009002200190002002904FF4806059
:1010500003900020049002216846FFF752FA00280E
:1010600001D000F004F8FFF7EFFA0FB000BD7047B1
:1010700080B50748016851F0100101600320FFF7B7
:1010800044FC0020FFF77EFB00F004F8002002BDC6
:101090000020024081B00E48016851F0010101605A
:1010A000006810F00100009000980A48016851F0B3
:1010B00080510160006810F080500090009806494F
:1010C000086830F0E06050F00070086001B07047D0
:1010D000181002401C100240040001400F4908682B
:1010E00050F0010008600E4A13680E480340136078
:1010F0000B680D4803400B60086830F480200860DE
:10110000106830F4FE0010605FF41F0007490860AB
:101110005FF0006006490860704700000010024060
:10112000041002400000FFF8FFFFF6FE0810024026
:1011300008ED00E030B450F8041B79B10268436850
:1011400002440830DC0744BFA9F10104E31852F857
:10115000045B43F8045B091FF9D1ECE730BC70472E
:1011600010B5074979441831064C7C44163404E024
:101170000A68081D114488470146A142F8D110BDF4
:101180000800000028000000B7F5FFFF040400007D
:101190000C000020000000009DFFFFFF0C0000007D
:1011A000C8000000000000200000000080B5FFF72C
:1011B00080FA01BDFEE7FEE7FEE7FEE770477047F5
:1011C000704780B500F002F801BD000003490A68CD
:1011D0000348007882180A60704700BF0C040020A2
:1011E0000800002000F00DF8002801D0FFF7B8FF3C
:1011F000AFF300800020AFF30080FFF7EAFE00F0BD
:1012000002F80120704700F001B800000746384698
:1012100000F002F8FBE7000080B5AFF30080024A5F
:1012200011001820ABBEFBE72600020002030405F4
:10123000060708090A0B0C0D0E0F10100000000025
:101240000000000001020304060708090148804766
:1012500001480047DD1000085D120008AFF3008070
:10126000AFF30080FFF7BEFF100000000024F40081
:1012700001000000FFF7FEBFFFF7FEBFFFF7FEBF54
:10128000FFF7FEBFFFF7FEBFFFF7FEBFFFF7FEBF92
:10129000FFF7FEBFFFF7FEBFFFF7FEBFFFF7FEBF82
:1012A000FFF7FEBFFFF7FEBFFFF7FEBFFFF7FEBF72
:1012B000FFF7FEBFFFF7FEBFFFF7FEBFFFF7FEBF62
:1012C000FFF7FEBFFFF7FEBFFFF7FEBFFFF7FEBF52
:1012D000FFF7FEBFFFF7FEBFFFF7FEBFFFF7FEBF42
:1012E000FFF7FEBFFFF7FEBFFFF7FEBFFFF7FEBF32
:1012F000FFF7FEBFFFF7FEBFFFF7FEBFFFF7FEBF22
:10130000FFF7FEBFFFF7FEBFFFF7FEBFFFF7FEBF11
:10131000FFF7FEBFFFF7FEBFFFF7FEBFFFF7FEBF01
:10132000FFF7FEBFFFF7FEBFFFF7FEBFFFF7FEBFF1
:10133000FFF7FEBFFFF7FEBFFFF7FEBFFFF7FEBFE1
:10134000FFF7FEBFFFF7FEBFFFF7FEBFFFF7FEBFD1
:10135000FFF7FEBFFFF7FEBFFFF7FEBFFFF7FEBFC1
:04136000FFF7FEBFD6
:040000050800125D80
:00000001FF
